{
  "contractName": "Syndicate",
  "abi": [
    {
      "anonymous": false,
      "inputs": [
        {
          "indexed": false,
          "internalType": "bytes32",
          "name": "paperHash",
          "type": "bytes32"
        },
        {
          "indexed": true,
          "internalType": "address",
          "name": "admin",
          "type": "address"
        }
      ],
      "name": "PaperApproved",
      "type": "event"
    },
    {
      "anonymous": false,
      "inputs": [
        {
          "indexed": false,
          "internalType": "bytes32",
          "name": "paperHash",
          "type": "bytes32"
        },
        {
          "indexed": true,
          "internalType": "address",
          "name": "professor",
          "type": "address"
        }
      ],
      "name": "PaperUploaded",
      "type": "event"
    },
    {
      "anonymous": false,
      "inputs": [
        {
          "indexed": true,
          "internalType": "address",
          "name": "userAddress",
          "type": "address"
        },
        {
          "indexed": false,
          "internalType": "string",
          "name": "role",
          "type": "string"
        }
      ],
      "name": "UserRegistered",
      "type": "event"
    },
    {
      "inputs": [
        {
          "internalType": "bytes32",
          "name": "",
          "type": "bytes32"
        }
      ],
      "name": "approvedPapers",
      "outputs": [
        {
          "internalType": "bool",
          "name": "",
          "type": "bool"
        }
      ],
      "stateMutability": "view",
      "type": "function"
    },
    {
      "inputs": [
        {
          "internalType": "address",
          "name": "",
          "type": "address"
        }
      ],
      "name": "users",
      "outputs": [
        {
          "internalType": "address",
          "name": "addr",
          "type": "address"
        },
        {
          "internalType": "string",
          "name": "role",
          "type": "string"
        },
        {
          "internalType": "string",
          "name": "name",
          "type": "string"
        },
        {
          "internalType": "string",
          "name": "dob",
          "type": "string"
        },
        {
          "internalType": "string",
          "name": "college",
          "type": "string"
        },
        {
          "internalType": "string",
          "name": "designation",
          "type": "string"
        }
      ],
      "stateMutability": "view",
      "type": "function"
    },
    {
      "inputs": [
        {
          "internalType": "string",
          "name": "_role",
          "type": "string"
        },
        {
          "internalType": "string",
          "name": "_name",
          "type": "string"
        },
        {
          "internalType": "string",
          "name": "_dob",
          "type": "string"
        },
        {
          "internalType": "string",
          "name": "_college",
          "type": "string"
        },
        {
          "internalType": "string",
          "name": "_designation",
          "type": "string"
        }
      ],
      "name": "registerUser",
      "outputs": [],
      "stateMutability": "nonpayable",
      "type": "function"
    },
    {
      "inputs": [
        {
          "internalType": "bytes32",
          "name": "paperHash",
          "type": "bytes32"
        }
      ],
      "name": "uploadPaper",
      "outputs": [],
      "stateMutability": "nonpayable",
      "type": "function"
    },
    {
      "inputs": [
        {
          "internalType": "bytes32",
          "name": "paperHash",
          "type": "bytes32"
        }
      ],
      "name": "approvePaper",
      "outputs": [],
      "stateMutability": "nonpayable",
      "type": "function"
    },
    {
      "inputs": [
        {
          "internalType": "bytes32",
          "name": "paperHash",
          "type": "bytes32"
        }
      ],
      "name": "isPaperApproved",
      "outputs": [
        {
          "internalType": "bool",
          "name": "",
          "type": "bool"
        }
      ],
      "stateMutability": "view",
      "type": "function"
    }
  ],
  "bytecode": "0x608060405234801561001057600080fd5b5061100c806100206000396000f3fe608060405234801561001057600080fd5b50600436106100625760003560e01c80630d1ba8161461006757806334b5114f1461009757806373912b9d146100c7578063a696d551146100e3578063a87430ba146100ff578063ac9f0a4014610134575b600080fd5b610081600480360381019061007c9190610a0a565b610150565b60405161008e9190610d48565b60405180910390f35b6100b160048036038101906100ac9190610a0a565b610170565b6040516100be9190610d48565b60405180910390f35b6100e160048036038101906100dc9190610a0a565b61019a565b005b6100fd60048036038101906100f89190610a0a565b6102b3565b005b610119600480360381019061011491906109e1565b6103f7565b60405161012b96959493929190610cc4565b60405180910390f35b61014e60048036038101906101499190610a33565b6106fb565b005b60016020528060005260406000206000915054906101000a900460ff1681565b60006001600083815260200190815260200160002060009054906101000a900460ff169050919050565b7f1ed01030550480f26cb23cf4b22db324788c97f656d5f0d6e010ee1cf65136ae6000803373ffffffffffffffffffffffffffffffffffffffff1673ffffffffffffffffffffffffffffffffffffffff16815260200190815260200160002060010160405160200161020c9190610cad565b6040516020818303038152906040528051906020012014610262576040517f08c379a000000000000000000000000000000000000000000000000000000000815260040161025990610da0565b60405180910390fd5b3373ffffffffffffffffffffffffffffffffffffffff167f7d59c65f66513a6e46846a7d083b465a413dabdf94de83e0e8e60a4630416249826040516102a89190610d63565b60405180910390a250565b7ff23ec0bb4210edd5cba85afd05127efcd2fc6a781bfed49188da1081670b22d86000803373ffffffffffffffffffffffffffffffffffffffff1673ffffffffffffffffffffffffffffffffffffffff1681526020019081526020016000206001016040516020016103259190610cad565b604051602081830303815290604052805190602001201461037b576040517f08c379a000000000000000000000000000000000000000000000000000000000815260040161037290610dc0565b60405180910390fd5b600180600083815260200190815260200160002060006101000a81548160ff0219169083151502179055503373ffffffffffffffffffffffffffffffffffffffff167f3d3f0e5444a97091a8629141516763d75fdd6aa0661bc9110702466717aea47c826040516103ec9190610d63565b60405180910390a250565b60006020528060005260406000206000915090508060000160009054906101000a900473ffffffffffffffffffffffffffffffffffffffff169080600101805461044090610f07565b80601f016020809104026020016040519081016040528092919081815260200182805461046c90610f07565b80156104b95780601f1061048e576101008083540402835291602001916104b9565b820191906000526020600020905b81548152906001019060200180831161049c57829003601f168201915b5050505050908060020180546104ce90610f07565b80601f01602080910402602001604051908101604052809291908181526020018280546104fa90610f07565b80156105475780601f1061051c57610100808354040283529160200191610547565b820191906000526020600020905b81548152906001019060200180831161052a57829003601f168201915b50505050509080600301805461055c90610f07565b80601f016020809104026020016040519081016040528092919081815260200182805461058890610f07565b80156105d55780601f106105aa576101008083540402835291602001916105d5565b820191906000526020600020905b8154815290600101906020018083116105b857829003601f168201915b5050505050908060040180546105ea90610f07565b80601f016020809104026020016040519081016040528092919081815260200182805461061690610f07565b80156106635780601f1061063857610100808354040283529160200191610663565b820191906000526020600020905b81548152906001019060200180831161064657829003601f168201915b50505050509080600501805461067890610f07565b80601f01602080910402602001604051908101604052809291908181526020018280546106a490610f07565b80156106f15780601f106106c6576101008083540402835291602001916106f1565b820191906000526020600020905b8154815290600101906020018083116106d457829003601f168201915b5050505050905086565b6040518060c001604052803373ffffffffffffffffffffffffffffffffffffffff168152602001868152602001858152602001848152602001838152602001828152506000803373ffffffffffffffffffffffffffffffffffffffff1673ffffffffffffffffffffffffffffffffffffffff16815260200190815260200160002060008201518160000160006101000a81548173ffffffffffffffffffffffffffffffffffffffff021916908373ffffffffffffffffffffffffffffffffffffffff16021790555060208201518160010190805190602001906107df9291906108ac565b5060408201518160020190805190602001906107fc9291906108ac565b5060608201518160030190805190602001906108199291906108ac565b5060808201518160040190805190602001906108369291906108ac565b5060a08201518160050190805190602001906108539291906108ac565b509050503373ffffffffffffffffffffffffffffffffffffffff167f48cac28ad4dc618e15f4c2dd5e97751182f166de97b25618318b2112aa951a2f8660405161089d9190610d7e565b60405180910390a25050505050565b8280546108b890610f07565b90600052602060002090601f0160209004810192826108da5760008555610921565b82601f106108f357805160ff1916838001178555610921565b82800160010185558215610921579182015b82811115610920578251825591602001919060010190610905565b5b50905061092e9190610932565b5090565b5b8082111561094b576000816000905550600101610933565b5090565b600061096261095d84610e11565b610de0565b90508281526020810184848401111561097a57600080fd5b610985848285610ec5565b509392505050565b60008135905061099c81610fa8565b92915050565b6000813590506109b181610fbf565b92915050565b600082601f8301126109c857600080fd5b81356109d884826020860161094f565b91505092915050565b6000602082840312156109f357600080fd5b6000610a018482850161098d565b91505092915050565b600060208284031215610a1c57600080fd5b6000610a2a848285016109a2565b91505092915050565b600080600080600060a08688031215610a4b57600080fd5b600086013567ffffffffffffffff811115610a6557600080fd5b610a71888289016109b7565b955050602086013567ffffffffffffffff811115610a8e57600080fd5b610a9a888289016109b7565b945050604086013567ffffffffffffffff811115610ab757600080fd5b610ac3888289016109b7565b935050606086013567ffffffffffffffff811115610ae057600080fd5b610aec888289016109b7565b925050608086013567ffffffffffffffff811115610b0957600080fd5b610b15888289016109b7565b9150509295509295909350565b610b2b81610e7d565b82525050565b610b3a81610e8f565b82525050565b610b4981610e9b565b82525050565b6000610b5a82610e56565b610b648185610e61565b9350610b74818560208601610ed4565b610b7d81610f97565b840191505092915050565b60008154610b9581610f07565b610b9f8186610e72565b94506001821660008114610bba5760018114610bcb57610bfe565b60ff19831686528186019350610bfe565b610bd485610e41565b60005b83811015610bf657815481890152600182019150602081019050610bd7565b838801955050505b50505092915050565b6000610c14602183610e61565b91507f4f6e6c792070726f666573736f72732063616e2075706c6f616420706170657260008301527f73000000000000000000000000000000000000000000000000000000000000006020830152604082019050919050565b6000610c7a601e83610e61565b91507f4f6e6c792061646d696e732063616e20617070726f76652070617065727300006000830152602082019050919050565b6000610cb98284610b88565b915081905092915050565b600060c082019050610cd96000830189610b22565b8181036020830152610ceb8188610b4f565b90508181036040830152610cff8187610b4f565b90508181036060830152610d138186610b4f565b90508181036080830152610d278185610b4f565b905081810360a0830152610d3b8184610b4f565b9050979650505050505050565b6000602082019050610d5d6000830184610b31565b92915050565b6000602082019050610d786000830184610b40565b92915050565b60006020820190508181036000830152610d988184610b4f565b905092915050565b60006020820190508181036000830152610db981610c07565b9050919050565b60006020820190508181036000830152610dd981610c6d565b9050919050565b6000604051905081810181811067ffffffffffffffff82111715610e0757610e06610f68565b5b8060405250919050565b600067ffffffffffffffff821115610e2c57610e2b610f68565b5b601f19601f8301169050602081019050919050565b60008190508160005260206000209050919050565b600081519050919050565b600082825260208201905092915050565b600081905092915050565b6000610e8882610ea5565b9050919050565b60008115159050919050565b6000819050919050565b600073ffffffffffffffffffffffffffffffffffffffff82169050919050565b82818337600083830152505050565b60005b83811015610ef2578082015181840152602081019050610ed7565b83811115610f01576000848401525b50505050565b60006002820490506001821680610f1f57607f821691505b60208210811415610f3357610f32610f39565b5b50919050565b7f4e487b7100000000000000000000000000000000000000000000000000000000600052602260045260246000fd5b7f4e487b7100000000000000000000000000000000000000000000000000000000600052604160045260246000fd5b6000601f19601f8301169050919050565b610fb181610e7d565b8114610fbc57600080fd5b50565b610fc881610e9b565b8114610fd357600080fd5b5056fea2646970667358221220978869ae8087b1186b05733c87ed4e3a0f4c3ecd74c614fb55e1441fb82a53ec64736f6c63430008000033",
  "immutableReferences": {},
  "source": "// SPDX-License-Identifier: MIT\r\n// contracts/Syndicate.sol\r\n\r\npragma solidity ^0.8.0;\r\n\r\ncontract Syndicate {\r\n    struct User {\r\n        address addr;\r\n        string role;\r\n        string name;\r\n        string dob;\r\n        string college;\r\n        string designation;\r\n    }\r\n\r\n    mapping(address => User) public users;\r\n    mapping(bytes32 => bool) public approvedPapers;\r\n\r\n    event UserRegistered(address indexed userAddress, string role);\r\n    event PaperUploaded(bytes32 paperHash, address indexed professor);\r\n    event PaperApproved(bytes32 paperHash, address indexed admin);\r\n\r\n    function registerUser(\r\n        string memory _role,\r\n        string memory _name,\r\n        string memory _dob,\r\n        string memory _college,\r\n        string memory _designation\r\n    ) public {\r\n        users[msg.sender] = User(msg.sender, _role, _name, _dob, _college, _designation);\r\n        emit UserRegistered(msg.sender, _role);\r\n    }\r\n\r\n    function uploadPaper(bytes32 paperHash) public {\r\n        require(\r\n            keccak256(abi.encodePacked(users[msg.sender].role)) == keccak256(\"professor\"),\r\n            \"Only professors can upload papers\"\r\n        );\r\n        emit PaperUploaded(paperHash, msg.sender);\r\n    }\r\n\r\n    function approvePaper(bytes32 paperHash) public {\r\n        require(\r\n            keccak256(abi.encodePacked(users[msg.sender].role)) == keccak256(\"admin\"),\r\n            \"Only admins can approve papers\"\r\n        );\r\n        approvedPapers[paperHash] = true;\r\n        emit PaperApproved(paperHash, msg.sender);\r\n    }\r\n\r\n    function isPaperApproved(bytes32 paperHash) public view returns (bool) {\r\n        return approvedPapers[paperHash];\r\n    }\r\n}\r\n",
  "sourcePath": "C:\\Users\\Public.SPIDY\\Desktop\\syndicate\\contracts\\Syndicate.sol",
  "compiler": {
    "name": "solc",
    "version": "0.8.0+commit.c7dfd78e.Emscripten.clang"
  },
  "schemaVersion": "3.4.16",
  "updatedAt": "2024-08-08T05:15:03.832Z",
  "devdoc": {
    "kind": "dev",
    "methods": {},
    "version": 1
  },
  "userdoc": {
    "kind": "user",
    "methods": {},
    "version": 1
  }
}